:020000040800F2
:1000000000040020C1010008918E0008918E0008B4
:10001000A14D0008918E0008918E0008918E000875
:10002000918E0008918E0008918E000831B1000871
:10003000918E0008918E0008918E000861220108BF
:10004000918E0008F1EA000881EC0008D1EC00086C
:10005000918E0008918E000831E8000881E80008C0
:10006000D1E8000821E9000871E9000871DD000805
:10007000C1DD000811DE000861DE0008B1DE000805
:1000800001DF000851DF0008A1E6000871EE00085A
:10009000E1EE000891EF000841F00008C1E9000816
:1000A000918E0008918E0008311B0108918E000886
:1000B000211E0108611E0108A11E0108610101083D
:1000C000A1020108918E0008918E0008918E00080F
:1000D000918E0008918E0008918E0008212301085E
:1000E00051EA000841EB000891EB0008711B010880
:1000F000918E0008918E0008918E0008A1DF000803
:10010000918E0008D1F10008E11E0108918E0008CF
:10011000918E0008918E0008F11A0108918E000856
:10012000F1DF000841E0000891E00008E1E000088C
:1001300031E10008918E0008E1EB0008918E000883
:10014000918E0008918E0008918E0008811501089B
:1001500081E10008D1E1000821E20008918E000849
:10016000918E0008918E0008918E0008918E0008F3
:1001700031EC0008918E0008513D0008918E000876
:10018000918E0008918E0008918E0008918E0008D3
:10019000918E0008918E0008918E0008918E0008C3
:1001A000918E0008918E0008918E0008918E0008B3
:1001B000918E0008918E0008918E0008918E0008A3
:1001C00072B62E4880F3098840F20000CCF200009D
:1001D0004EF63471CEF20001086040F20000C0F229
:1001E000F0004EF68851CEF2000108604FF000009A
:1001F000E1EE100A4EF63C71CEF2000108600620D6
:1002000080F31488BFF36F8F12F0D2F94FF055309E
:100210001B491C4A91423CBF41F8040BFAE71A49BA
:10022000164A91423CBF41F8040BFAE71749184AB5
:10023000184B9A423EBF51F8040B42F8040BF8E702
:1002400000201549154A91423CBF41F8040BFAE7DA
:1002500008F006FE124C134DAC4203DA54F8041BAE
:100260008847F9E701F05CFF0F4C104DAC4203DA10
:1002700054F8041B8847F9E708F002BE0008002084
:1002800000000020000400200004002018EB0108FA
:10029000000800203C18002040180020F8800020B2
:1002A000C0010008C0010008C0010008C00100082A
:1002B0002DE9F04F2DED108AC1F80CD0D0F80CD0FC
:1002C000BDEC108ABDE8F08F08F022FF09F078FF3E
:1002D000002383F311882846A047002009F0A8FCDA
:1002E00009F056FF08F0F4FE09F012FB08F010FFC9
:1002F00009F066FF00DFFEE70000000000000000DC
:100300002DE9F843544B80461A68544882422DED3B
:10031000028B1BD052490B68DA0405D40A6842F4F8
:1003200080530B60012000E000204E4A4E491160CE
:1003300013684A4A934208D147490B6030B1484894
:10034000036823F48052026000E0FEE798ED018A22
:10035000B5EE408A0021F1EE10FAC8F81C10C8F87A
:100360001810C8F81410C8F81010C8F82810C8F8E9
:100370002410C8F8201029D0DFED3C7A28EE270A97
:1003800010EE100A01F038F8044618EE100A0D4677
:1003900001F032F80646B8F800000F4601F01AF8EE
:1003A0002BA3D3E9002301F0ADF902460B463046FA
:1003B000394600F0C3FE02460B462046294601F0AE
:1003C000A1F901F055FBA8F82C0001E0A8F82C10C9
:1003D00098ED028AB5EE408AF1EE10FA26D0B8F810
:1003E00000904FEA092000F0F5FF044618EE100ACD
:1003F0000D4601F001F816A3D3E9002301F058F8E7
:10040000064648460F4600F0E5FF02460B463046DA
:10041000394600F093FE02460B462046294601F07D
:1004200071F901F025FBA8F82E0002E00020A8F8E1
:100430002E00B8F800204FF47A73B2FBF3F1A8F85D
:100440003010BDEC028BBDE8F88300BFAFF3008035
:100450001F85EB51B81E194040180020CDB5E8B5F6
:100460003038024000300240C2A507F4000080434B
:100470002DE9F04F9BB083461992A94A1891A948DB
:100480001168814200D0FEE79E6AB3F80CC09F69F4
:100490009A8DD98D039603261C6A5D6A059706928C
:1004A00006FB0CF74FEA8C0206264FEA4C000B9134
:1004B0000E97052106FB0CF70F9207220294049574
:1004C0000D90119701FB0CF04FEACC0602FB0CF1EA
:1004D00000271D695C69D3F81CA010901291179633
:1004E0000197188EDDF80490814580F20A818E48CC
:1004F0009BF800601BF80C7010F80690C25DA144D8
:100500008419511994F8008194F8002201EB4808ED
:10051000CDF81C80DDF834801BF80860855DC719B4
:10052000A9180E9A97F800411BF8022097F800725C
:1005300001EB4405815C0895CC1981190F9E91F857
:10054000008191F8007204EB48081BF80640CDF8D2
:1005500024808218055D92F8006192F80022E91962
:1005600001EB460505EB0807DDF8408015971BF801
:1005700008700A950419C15D94F8005194F800427E
:10058000DDF81C808E1806EB4501119D089A1BF8BA
:1005900005508E18C719425D1696161997F8002156
:1005A00006EB42029044CDF85080129C97F80072FE
:1005B0001BF804604519845DE41995F8007195F8FD
:1005C0000052801904EB47044FF01C0804EB0907A4
:1005D00090F80061139708FB09AADDF81C800C94C1
:1005E0000AEB0209152705EB460490F8005207FBB9
:1005F0000890099FDDF820900A2606FB070A0F27BE
:1006000007FB09A04FF00308DDF8289008FB010064
:100610004FF0060A0AFB0900009015984FF03009C8
:1006200009FB00FADDF858902E2000FB09A0824655
:100630000598824413984FF0240909FB00AA1498E6
:100640004FF02A0909FB00AA0898DDF8249008FB5E
:1006500000F8062000FB0988DDF81C9008EB090073
:1006600007FB01010A9F0C98DDF8009006FB0718B4
:100670001C2606FB008115270B9807FB021205922A
:10068000A9F5003868B1029E049FCDF8108006EBF2
:100690000801CE1B46434FF4807296FBF2F00290A5
:1006A0008046069961B1039E08FB01F8C1F5807789
:1006B00006FB07894FF4807299FBF2F003908046A5
:1006C000199901FB08F7002F02DD0837381103E004
:1006D000083F102697FBF6F047F6BC72019E1349BF
:1006E000189FDDF85C809042A8BF1046DA897243FB
:1006F0008842A8BF0146013627F81210C34401966C
:10070000EFE61D615C61029D059C1D629C61039D7D
:10071000049CC3F81CA05C629D621BB0BDE8F08F16
:1007200040180020CDB5E8B5000800204480FFFF48
:100730002DE9F04FA1B0C74C1F92C74A1E91116816
:10074000A14200D0FEE79F6A9A69998DDC8D0497DB
:100750009F89069207910F940322052106241D6AA2
:100760005E6A03957A4379437C43129214911594FF
:10077000072209210A24794305964FEA47084FEAE0
:1007800087097A434FEAC70A7C431E695D69D3F83B
:100790001CB01891CDF84480CDF84C901692CDF84D
:1007A0005CA01D94002102911A8E0299914280F260
:1007B0005981AA4A047812F80490A944C55D111918
:1007C00012F8058091F8004191F800A2464406EB2A
:1007D0004406119C0896045D5519165D95F800C1F4
:1007E00095F8005206EB0A0808EB4C0ADDF8488041
:1007F000CDF824A010F80810DDF84C80565C1419D0
:1008000006EB050A10F8085094F800C1565D94F8FC
:10081000004251180AEB4C0C361991F800A1149CB7
:1008200091F80012CDF828C006EB4A08065DCDF815
:100830002C80945DDDF85480551904EB010A95F87D
:10084000004195F800520AEB44010C9110F8081091
:100850009619545C641996F8005104EB45040D9404
:10086000169D96F80062DDF824A0DDF85C80A444B3
:10087000445DCDF86CC0155D5118AD1991F800615B
:1008800091F8001205EB460505EB0A060E9510F8E7
:1008900008501C961419565DDDF860A0711894F884
:1008A000006194F8004201EB460C08990CEB01063C
:1008B0001A9610F80A605519915D9219091995F860
:1008C000004192F8006195F8005201EB44012D249B
:1008D00001EB090804FB09BB10910899CDF864806D
:1008E0000BEB0C09DDF8288005EB460592F8006259
:1008F000242202FB019A152404FB08A9DDF824A098
:100900000C994FF01C0B0BFB0A994FF00A08DDF80D
:100910002CA008FB01994FF00F0B0E990BFB0A99C5
:100920004FF00308DDF834A008FB01994FF0060BE7
:100930000BFB0A99CDF80490DDF82CA00C994FF030
:100940004B0B51440BFB01F91B994FF0490A0AFB71
:10095000019B0699DDF868900BEB010A4FF03F0B05
:100960001C990BFB09AA4FF0450BDDF864900BFBBB
:1009700001AA4FF0370B0BFB09ABDDF824A00A9955
:1009800008FB0AF84FF00609DDF820A009FB0188F2
:100990000C99D0444FF00F09DDF82CA009FB018819
:1009A0000A21DDF8389001FB0A884FF01C0A0D99E6
:1009B0000AFB098804FB018A109C0F994FF02D094E
:1009C00009FB04A8DDF804A002FB0C820692AAF53C
:1009D0007A3971B1039C0599CDF8149004EB0902A2
:1009E000541A0F9A4FF48071544394FBF1F403941A
:1009F000A146079961B1049CC1F5807209FB01FC15
:100A000004FB02C94FF4807199FBF1F20492914604
:100A10001F9C04FB09F1002902DD10314C1103E099
:100A20001039202291FBF2F447F6BC718C42A8BF2A
:100A30000C46DA890299DDF874804A4308498C42F1
:100A4000A8BF21461E9C24F81210029A4044511C53
:100A5000A9E600BFCDB5E8B5401800200008002089
:100A60004480FFFF05981E615D61039E069D049C06
:100A700058629D61C3F81CB01E629C62104621B092
:100A8000BDE8F08F2DE9F04F95B0994C1392994A3B
:100A900012911168A14200D0FEE75E6A1D6A9F6A4A
:100AA0009A69998DB3F82E800C964FF00009D3F80F
:100AB00010C05E69D3F81CB00195029709920A91A3
:100AC000CDF83480CDF80C908B4904780D190C5D6D
:100AD00095F8007295F8008106EB070A067ACDF8C2
:100AE0002CA08F198E5D97F8002202EB4805AC44CC
:100AF000057C97F80081CDF810C04A194D5D92F839
:100B0000009292F8002109EB040A0AEB480C90F8D5
:100B100018A090F82090CDF814C001EB0A0494F8C6
:100B2000007294F80041BF1907EB420801EB09027B
:100B3000CDF8188092F8006292F80021771907EB3F
:100B4000440606EB080C90F8288011F80A70079606
:100B500001EB0805CDF840C095F8004295F800512A
:100B6000E619059F06EB4204E619119690F83060ED
:100B700008948C1911F8097094F80022D219049F76
:100B800002EB4502BD180F9590F8385011F8089007
:100B900094F80041DDF82C808E5D4F1997F800A283
:100BA00097F800710AEB090C0CEB4404DDF818A06F
:100BB00011F805C000941C2505FB082944440A21AE
:100BC000DDF8148001FB0A9906EB4706DDF820A04A
:100BD0000F2707FB0899032101FB0A99DDF81CA0E8
:100BE0004FF0060808FB0A99DDF810A0152101FB5B
:100BF0000A99CB44DDF84490CDF82CB04FF02E0A82
:100C00000AFB09FADDF840904FF0300B0BFB09AA04
:100C10004FF0240B0BFB04A90F9C4FF02A0A0AFB90
:100C2000049B099CDDF81890DDF810A0A344059CF6
:100C300008FB09A8DDF820A04FF0030909FB048890
:100C4000079C07FB0A890A2707FB0498DDF8009038
:100C5000DDF82CA00C9F05FB098501FB02520199D0
:100C60000992AAF500328C180D99DDF82880E51B51
:100C70004D434FF4807195FBF1F40194019F44467C
:100C80007C43029FC8EB010507FB054595FBF1F18D
:100C90000291139C6143002902DD0831091103E030
:100CA0000839102791FBF7F147F6BC75134C129FDA
:100CB0000C92A942A8BF2946039DA142B8BF214674
:100CC00079530C354030C02D03957FF4FDAE099863
:100CD000019C029D9861C3F810C05E61C3F81CB00E
:100CE0001C625A629D62102015B0BDE8F08F00BFF3
:100CF000CDB5E8B540180020000800204480FFFF73
:100D00002DE9F04FA1B084461F92BE4A1E91BE4805
:100D10001168814200D0FEE79E6A9F6905969E8910
:100D2000D98D01967000079703277E431190019893
:100D30009A8D0F9112960521019E08924843B200A8
:100D40001490019E01980199139206277E43072271
:100D5000C700514315961797019E019F1C6A5D6A53
:100D6000169109220A2156434F434FF0000804947C
:100D700006955C691D69D3F81CB018961D97CDF8CF
:100D80000C80188EDDF80C90814580F25A819F49C5
:100D90009CF80000DDF804900F181CF8096097F823
:100DA00000A297F80021085CA2448C198E5D94F88B
:100DB000008294F80041454405EB4207119D0997D4
:100DC0001CF805504A194D5D92F8007292F80081A6
:100DD0003F18129807EB44091CF80040CDF8289002
:100DE00008190C5D90F8007290F80001BF1907EB2C
:100DF0004809DDF84C80CDF82C901CF8089001EBE8
:100E00000902CDF8089092F8006292F80021771953
:100E1000149E1CF80690159E07EB400801EB090094
:100E2000CDF8308090F8005290F800012F1907EBB0
:100E300042081CF80670029DCDF83480CA194E5D38
:100E400092F80042A41904EB40050295DDF82C80CD
:100E5000169E92F80021CF5DA844CDF86C801CF856
:100E6000068011F80950DDF8609001EB080011F8D8
:100E7000088090F8004290F8000166190A9D06EB80
:100E80004204179A0E9466191C961CF802608C197D
:100E90008E5D94F8002294F80041D519099F05EB66
:100EA0004002D5191A951CF809504F194D5D97F855
:100EB000000297F80071404400EB44002D2100EB44
:100EC0000A0401FB0ABB1090099819940BEB020A63
:100ED00006EB470424210B9F01FB00A94FF01508E6
:100EE000DDF828A00D9808FB07964FF01C0B0BFBB4
:100EF0000A69DDF830800A2606FB009A0F27DDF824
:100F0000389007FB08AB4FF0030808FB09BADDF87F
:100F100008B0062000FB0BA9CDF80090DDF834A046
:100F2000DDF830B04FF04B090AEB0B0009FB00FA7B
:100F30001B984FF0490B0BFB00A9079809EB000A1F
:100F4000DDF868901C984FF03F0B0BFB09AA4FF09F
:100F5000450BDDF864900BFB00AA4FF0370B0BFB41
:100F600009ABDDF828A00B9808FB0AF84FF006093A
:100F7000DDF824A009FB00880D9808EB0A0907FB9F
:100F800000980C9FDDF83890029806FB07864FF01A
:100F90001C0A0AFB0968152707FB008610980F9F9B
:100FA0004FF02D0909FB006A01FB02A2DDF800A049
:100FB0000792AAF57A386FB10499069ECDF8188089
:100FC00001EB0800811B79434FF4807291FBF2F72B
:100FD0000497B846089860B1059908FB00F8C0F579
:100FE000807601FB06894FF4807299FBF2F7059732
:100FF000B8461F9800FB08F6002E09DD1036771161
:101000000AE000BF40180020CDB5E8B50008002078
:10101000103E202196FBF1F7039ED8891049DDF898
:10102000748047F6BC729742A8BF17468F42A8BF8C
:10103000394670431E9F721C27F81010C444039257
:101040009FE65C61079C049A9C61059E069C1D615D
:10105000C3F81CB01A625C629E6221B0BDE8F08FDA
:101060004480FFFFAFF3008000000000000000009C
:101070004B1C012B98BF70472DE9F003911C9B0876
:10108000B1F80480B1F802900A8831F802CC8044AB
:10109000814402448444D9F80070D8F8006015688F
:1010A000DCF80040C9F80060C8F80070CCF80050C7
:1010B0001460D9F80470D8F804605568DCF804406E
:1010C000C9F80460C8F80470CCF8045054600831C2
:1010D000013BD5D1BDE8F00370474B1C012B98BFF5
:1010E00070472DE9F003911C9B08B1F80480B1F81A
:1010F00002900A8831F802CC00EB580800EB59093D
:1011000000EB520200EB5C0CD9F80070D8F80060DC
:101110001568DCF80040C9F80060C8F80070CCF829
:10112000005014600831013BDFD1BDE8F003704787
:1011300081F0004102E000BF83F0004330B54FEA88
:1011400041044FEA430594EA050F08BF90EA020FF5
:101150001FBF54EA000C55EA020C7FEA645C7FEA88
:10116000655C00F0E2804FEA5454D4EB5555B8BFAB
:101170006D420CDD2C4480EA020281EA030382EA1C
:10118000000083EA010180EA020281EA0303362DAE
:1011900088BF30BD11F0004F4FEA01314FF4801C81
:1011A0004CEA113102D0404261EB410113F0004F93
:1011B0004FEA03334CEA133302D0524263EB43034A
:1011C00094EA050F00F0A780A4F10104D5F1200EE8
:1011D0000DDB02FA0EFC22FA05F2801841F1000143
:1011E00003FA0EF2801843FA05F359410EE0A5F117
:1011F00020050EF1200E012A03FA0EFC28BF4CF048
:10120000020C43FA05F3C01851EBE37101F00045FD
:1012100007D54FF0000EDCF1000C7EEB00006EEB0A
:101220000101B1F5801F1BD3B1F5001F0CD3490894
:101230005FEA30004FEA3C0C04F101044FEA4452EB
:1012400012F5800F80F09A80BCF1004F08BF5FEA72
:10125000500C50F1000041EB045141EA050130BD52
:101260005FEA4C0C404141EB010111F4801FA4F1F5
:101270000104E9D191F0000F04BF01460020B1FA4A
:1012800081F308BF2033A3F10B03B3F120020CDA82
:101290000C3208DD02F1140CC2F10C0201FA0CF060
:1012A00021FA02F10CE002F11402D8BFC2F1200CC5
:1012B00001FA02F120FA0CFCDCBF41EA0C0190407B
:1012C000E41AA2BF01EB0451294330BD6FEA0404C4
:1012D0001F3C1CDA0C340EDC04F11404C4F12002AF
:1012E00020FA04F001FA02F340EA030021FA04F3C1
:1012F00045EA030130BDC4F10C04C4F1200220FA18
:1013000002F001FA04F340EA0300294630BD21FA55
:1013100004F0294630BD94F0000F83F4801306BF1B
:1013200081F480110134013D4EE77FEA645C18BF0F
:101330007FEA655C29D094EA050F08BF90EA020FA6
:1013400005D054EA000C04BF1946104630BD91EA9E
:10135000030F1EBF0021002030BD5FEA545C05D1A1
:101360004000494128BF41F0004130BD14F58004E0
:101370003CBF01F5801130BD01F0004545F0FE4154
:1013800041F470014FF0000030BD7FEA645C1ABF89
:10139000194610467FEA655C1CBF0B46024650EAC0
:1013A000013406BF52EA033591EA030F41F40021EC
:1013B00030BD00BF90F0000F04BF0021704730B572
:1013C0004FF4806404F132044FF000054FF0000147
:1013D00050E700BF90F0000F04BF0021704730B508
:1013E0004FF4806404F1320410F0004548BF4042DD
:1013F0004FF000013EE700BF42004FEAE2014FEA32
:1014000031014FEA02701FBF12F07F4393F07F4F0C
:1014100081F06051704732F07F4208BF704793F00F
:101420007F4F04BF41F40021704730B54FF4607422
:1014300001F0004521F000411CE700BF50EA010225
:1014400008BF704730B54FF000050AE050EA0102CE
:1014500008BF704730B511F0004502D5404261EB3E
:1014600041014FF4806404F132045FEA915C3FF47F
:10147000D8AE4FF003025FEADC0C18BF03325FEA1C
:10148000DC0C18BF033202EBDC02C2F1200300FACD
:1014900003FC20FA02F001FA03FE40EA0E0021FAF2
:1014A00002F11444BDE600BF00000000000000008F
:1014B00070B54FF0FF0C4CF4E06C1CEA11541DBFEA
:1014C0001CEA135594EA0C0F95EA0C0F00F0DEF8B5
:1014D0002C4481EA030621EA4C5123EA4C5350EA9A
:1014E000013518BF52EA033541F4801143F48013EB
:1014F00038D0A0FB02CE4FF00005E1FB02E506F07C
:101500000042E0FB03E54FF00006E1FB03569CF0D0
:10151000000F18BF4EF0010EA4F1FF04B6F5007FD6
:1015200064F5407404D25FEA4E0E6D4146EB060648
:1015300042EAC62141EA55514FEAC52040EA5E50D1
:101540004FEACE2EB4F1FD0C88BFBCF5E06F1ED87B
:10155000BEF1004F08BF5FEA500E50F1000041EBB2
:10156000045170BD06F0004646EA010140EA02005F
:1015700081EA0301B4EB5C04C2BFD4EB0C0541EA81
:10158000045170BD41F480114FF0000E013C00F396
:10159000AB8014F1360FDEBF002001F0004170BDBA
:1015A000C4F10004203C35DA0C341BDC04F11404D3
:1015B000C4F1200500FA05F320FA04F001FA05F25F
:1015C00040EA020001F0004221F0004110EBD3702C
:1015D00021FA04F642EB06015EEA430E08BF20EA58
:1015E000D37070BDC4F10C04C4F1200500FA04F3FB
:1015F00020FA05F001FA04F240EA020001F000418D
:1016000010EBD37041F100015EEA430E08BF20EAFF
:10161000D37070BDC4F1200500FA05F24EEA020E47
:1016200020FA04F301FA05F243EA020321FA04F076
:1016300001F0004121FA04F220EA020000EBD3702D
:101640005EEA430E08BF20EAD37070BD94F0000F2D
:101650000FD101F00046400041EB010111F4801F61
:1016600008BF013CF7D041EA060195F0000F18BF12
:10167000704703F00046520043EB030313F4801F4E
:1016800008BF013DF7D043EA0603704794EA0C0F08
:101690000CEA135518BF95EA0C0F0CD050EA41061E
:1016A00018BF52EA4306D1D181EA030101F000419B
:1016B0004FF0000070BD50EA410606BF10461946C3
:1016C00052EA430619D094EA0C0F02D150EA0136CF
:1016D00013D195EA0C0F05D152EA03361CBF104610
:1016E00019460AD181EA030101F0004141F0FE41AF
:1016F00041F470014FF0000070BD41F0FE4141F433
:10170000780170BD70B54FF0FF0C4CF4E06C1CEA32
:1017100011541DBF1CEA135594EA0C0F95EA0C0FE7
:1017200000F0A7F8A4EB050481EA030E52EA0335A2
:101730004FEA013100F088804FEA03334FF08055C3
:1017400045EA131343EA12634FEA022245EA1115F0
:1017500045EA10654FEA00260EF000419D4208BFA1
:10176000964244F1FD0404F5407402D25B084FEA4E
:101770003202B61A65EB03055B084FEA32024FF4FA
:1017800080104FF4002CB6EB020E75EB030E22BF57
:10179000B61A754640EA0C005B084FEA3202B6EB17
:1017A000020E75EB030E22BFB61A754640EA5C00C6
:1017B0005B084FEA3202B6EB020E75EB030E22BF56
:1017C000B61A754640EA9C005B084FEA3202B6EB57
:1017D000020E75EB030E22BFB61A754640EADC0016
:1017E00055EA060E18D04FEA051545EA16754FEA78
:1017F00006164FEAC30343EA52734FEAC2025FEA96
:101800001C1CC0D111F4801F0BD141EA00014FF024
:1018100000004FF0004CB6E711F4801F04BF0143F5
:101820000020B4F1FD0C88BFBCF5E06F3FF6AFAE11
:10183000B5EB030C04BFB6EB020C5FEA500C50F1A1
:10184000000041EB045170BD0EF0004E4EEA113124
:1018500014EB5C04C2BFD4EB0C0541EA045170BD2B
:1018600041F480114FF0000E013C90E645EA060E6F
:101870008DE60CEA135594EA0C0F08BF95EA0C0F9D
:101880003FF43BAF94EA0C0F0AD150EA01347FF4E5
:1018900034AF95EA0C0F7FF425AF104619462CE7BC
:1018A00095EA0C0F06D152EA03353FF4FDAE10461F
:1018B000194622E750EA410618BF52EA43067FF470
:1018C000C5AE50EA41047FF40DAF52EA43057FF400
:1018D000EBAE12E700000000000000000000000076
:1018E0004FF0FF3C06E000BF4FF0010C02E000BFEC
:1018F0004FF0010C4DF804CD4FEA410C7FEA6C5CCF
:101900004FEA430C18BF7FEA6C5C1BD001B050EA71
:10191000410C0CBF52EA430C91EA030F02BF90EA5C
:10192000020F0020704710F1000F91EA030F58BF1B
:10193000994208BF90422CBFD8176FEAE37040F07D
:10194000010070474FEA410C7FEA6C5C02D150EA1B
:10195000013C07D14FEA430C7FEA6C5CD6D152EAD6
:10196000033CD3D05DF8040B704700BF844610469B
:1019700062468C461946634600E000BF01B5FFF79A
:10198000B7FF002848BF10F1000F01BD4DF808ED6A
:10199000FFF7F4FF0CBF012000205DF808FB00BF3B
:1019A0004DF808EDFFF7EAFF34BF012000205DF895
:1019B00008FB00BF4DF808EDFFF7E0FF94BF0120E2
:1019C00000205DF808FB00BF4DF808EDFFF7CEFFE3
:1019D00094BF012000205DF808FB00BF4DF808ED22
:1019E000FFF7C4FF34BF012000205DF808FB00BFF3
:1019F0004FEA410C7FEA6C5C02D150EA013C0AD10B
:101A00004FEA430C7FEA6C5C02D152EA033C02D1FC
:101A10004FF0000070474FF00100704700000000D9
:101A20004FEA410212F5001215D211D56FF4787306
:101A3000B3EB625212D94FEAC12343F0004343EAA9
:101A4000505311F0004F23FA02F018BF4042704784
:101A50004FF00000704750EA013005D111F000400E
:101A600008BF6FF0004070474FF00000704700BFA4
:101A70004A0011D212F5001211D20DD56FF478730D
:101A8000B3EB62520ED44FEAC12343F0004343EA62
:101A9000505323FA02F070474FF00000704750EAAD
:101AA000013002D14FF0FF3070474FF00000704717
:101AB0004FEA4102B2F1E04324BFB3F5001CDCF170
:101AC000FE5C0DD901F0004C4FEAC0024CEA5070A8
:101AD000B2F1004F40EB830008BF20F001007047D7
:101AE00011F0804F21D113F13872BCBF01F00040DA
:101AF000704741F480114FEA5252C2F11802C2F10C
:101B0000200C10FA0CF320FA02F018BF40F001008C
:101B10004FEAC1234FEAD32303FA0CFC40EA0C003E
:101B200023FA02F34FEA4303CCE77FEA625307D17B
:101B300050EA01331EBF4FF0FE4040F440007047B2
:101B400001F0004040F0FE4040F40000704700BF4C
:101B500053B94AB9002908BF00281CBF4FF0FF3114
:101B60004FF0FF3000F074B9ADF1080C6DE904CE10
:101B700000F006F8DDF804E0DDE9022304B0704768
:101B80002DE9F047089E04468846002B4BD18A4237
:101B9000154667D9B2FA82F24AB1C2F1200701FABA
:101BA00002F320FA07F7954047EA030894404FEA0A
:101BB000154E230CB8FBFEF71FFA85FC0EFB1788A9
:101BC00043EA084307FB0CF1994209D9EB1807F1E6
:101BD000FF3080F01B81994240F21881023F2B4474
:101BE0005B1AA4B2B3FBFEF00EFB103344EA0344CD
:101BF00000FB0CFCA44509D92C1900F1FF3380F03F
:101C00000781A44540F2048102382C4440EA074091
:101C1000A4EB0C0400271EB1D4400023C6E9004306
:101C20003946BDE8F0878B4209D9002E00F0EB80E1
:101C30000027C6E9000138463946BDE8F087B3FA07
:101C400083F7002F47D18B4202D3824200F2FA8001
:101C5000841A61EB030301209846002EE0D0C6E908
:101C60000048DDE702B9FFDEB2FA82F2002A40F056
:101C70008F80491B4FEA154E1FFA85F80127B1FBEB
:101C8000FEFC230C0EFB1C1143EA014308FB0CF184
:101C9000994207D9EB180CF1FF3002D2994200F2B9
:101CA000CD808446591AA3B2B1FBFEF00EFB10148E
:101CB00043EA044408FB00F8A04507D92C1900F1B9
:101CC000FF3302D2A04500F2B6801846A4EB080408
:101CD00040EA0C409FE7C7F1200CBB4022FA0CFE03
:101CE0004EEA030E01FA07F420FA0CF521FA0CF380
:101CF0004FEA1E482543B3FBF8F92C0C08FB1933B7
:101D00001FFA8EFA44EA034309FB0AF49C4202FAE2
:101D100007F200FA07F10BD91EEB030309F1FF30BC
:101D200080F087809C4240F28480A9F102097344CC
:101D30001B1BADB2B3FBF8F008FB103345EA0344BC
:101D400000FB0AFAA24508D91EEB040400F1FF3398
:101D50006BD2A24569D90238744440EA0940A0FB1D
:101D60000289A4EB0A044C45C2464B4654D351D0D9
:101D7000002E69D0B1EB0A0564EB030404FA0CFCF5
:101D8000FD40FC404CEA0505C6E90054002747E742
:101D9000C2F1200320FA03F7954001FA02F021FA7C
:101DA00003F34FEA154E3843010CB3FBFEF71FFA5D
:101DB00085F80EFB173341EA034107FB08F38B421A
:101DC00004FA02F407D9691807F1FF3C2FD28B42BD
:101DD0002DD9023F2944CB1A81B2B3FBFEF00EFB92
:101DE000103341EA034100FB08F38B4207D969181D
:101DF00000F1FF3C17D28B4215D902382944C91A89
:101E000040EA07473BE73746304609E70746E7E63B
:101E10001846FBE64145ABD2B8EB020A69EB0E026D
:101E200001381346A4E76046E9E7184695E7674698
:101E3000D1E781467CE702382C4447E7ACF1020C3D
:101E40002B442FE7384608E73746E9E60000000054
:101E5000704700BF0000000000000000000000000C
:101E6000844641EA000313F003036DD1403A41D3A5
:101E700051F8043B40F8043B51F8043B40F8043B64
:101E800051F8043B40F8043B51F8043B40F8043B54
:101E900051F8043B40F8043B51F8043B40F8043B44
:101EA00051F8043B40F8043B51F8043B40F8043B34
:101EB00051F8043B40F8043B51F8043B40F8043B24
:101EC00051F8043B40F8043B51F8043B40F8043B14
:101ED00051F8043B40F8043B51F8043B40F8043B04
:101EE00051F8043B40F8043B51F8043B40F8043BF4
:101EF000403ABDD2303211D351F8043B40F8043B94
:101F000051F8043B40F8043B51F8043B40F8043BD3
:101F100051F8043B40F8043B103AEDD20C3205D3A3
:101F200051F8043B40F8043B043AF9D2043208D09B
:101F3000D2071CBF11F8013B00F8013B01D30B880D
:101F400003806046704700BF082A13D38B078DD0EB
:101F500010F003038AD0C3F10403D21ADB071CBFBD
:101F600011F8013B00F8013B80D331F8023B20F827
:101F7000023B7BE7043AD9D3013A11F8013B00F860
:101F8000013BF9D20B7803704B7843708B788370E8
:101F900060467047000000000000000000000000E4
:101FA00090F800F06DE9024520F007016FF0000C99
:101FB00010F0070491F820F040F049804FF0000441
:101FC0006FF00700D1E9002391F840F000F108001C
:101FD00082FA4CF2A4FA8CF283FA4CF3A2FA8CF354
:101FE0004BBBD1E9022382FA4CF200F10800A4FABB
:101FF0008CF283FA4CF3A2FA8CF3E3B9D1E904230F
:1020000082FA4CF200F10800A4FA8CF283FA4CF345
:10201000A2FA8CF37BB9D1E9062301F1200182FAFF
:102020004CF200F10800A4FA8CF283FA4CF3A2FA05
:102030008CF3002BC6D0002A04BF04301A4612BA13
:10204000B2FA82F2FDE8024500EBD2007047D1E916
:10205000002304F00305C4F100004FEAC50514F0A5
:10206000040F91F840F00CFA05F562EA05021CBF76
:1020700063EA050362464FF00004A9E70000000090
:1020800001F0FF01102A2BDB10F0070F08D010F829
:10209000013B013A8B422DD010F0070F42B3F6D12D
:1020A000F0B441EA012141EA014122F007047FF046
:1020B00000070023F0E80256083C85EA010586EA9D
:1020C000010685FA47F5A3FA87F586FA47F6A5FAD9
:1020D00087F68EB9EED1F0BC01F0FF0102F00702E5
:1020E00032B110F8013B013A83EA010313B1F8D190
:1020F0000020704701387047002D06BF3546033871
:10210000073815F0010F07D1013015F4807F02BFA9
:10211000013015F4C03F0130F0BC0138704700BFFA
:1021200000B5154B83B01B68019309F061F806F008
:10213000C7FE02F0DDFD114911480AF069FD03F008
:1021400087F91049104809F053FB4FF6FF710E480C
:1021500009F0FEFB03F0A4F806F042FE00F0A0FE3A
:102160000A4802F05DF801F09BFF02F0D9FB4FF442
:102170007A7007F0E5FCFAE7000B0020040B002062
:102180004C800020B0920108BC7F00206131000823
:1021900000B5084B83B01A680192019A1B689A42F5
:1021A00005D1054803B05DF804EB06F0F1BEFFF77A
:1021B000EFFF00BF000B002090920108000000001C
:1021C0000EB410B50A4C0B4923680B4883B0019339
:1021D00006AB1A46009310F043FA019A23689A421C
:1021E00004D103B0BDE8104003B07047FFF7D0FF43
:1021F000000B0020E0920108406A0020000000006F
:10220000DFED517A80EE270A2DE9F047DFF840A193
:102210000546DAF8003000FB00F40E4601FB01F73A
:102220002DED048BDFED498A80EE288A86B0059378
:1022300080EEA79A18EE100AFFF7DEF841EC100BBB
:1022400010F0E6FC53EC102BE019CDE90023FFF76A
:10225000C1F88046680006FB00F08946FFF7BAF82F
:10226000DDE90023FFF724F902460B4640464946C4
:10227000FEF762FF41EC100B10F0EAFD51EC100B81
:10228000FFF716FC07EE904A06EE900A07EE107A6A
:10229000F8EEE77A36EEA66AE6EEA67AF8EEC76AB8
:1022A00007EE105AB8EEC77A77EEE67A26EE077A8E
:1022B000C7EE877A17EE900AFFF79EF841EC100BF5
:1022C00010F066FD51EC100BFFF7F2FB07EE900AE1
:1022D00037EE888A18EE100AFFF78EF841EC100BE3
:1022E00010F0F6FCC9EE287A53EC102B77EE887AC2
:1022F000CDE9022317EE900AFFF77EF841EC100BB0
:1023000010F0E6FC30468DED000BFFF763F8DDE9D9
:102310000223FFF7CDF89DED000B53EC102BFFF7D8
:10232000F1F921F000431946FFF7A2FB059ADAF80C
:1023300000309A4205D180B206B0BDEC048BBDE8F6
:10234000F087FFF725FF00BF00003443DB0F494053
:10235000000B002000000000000000000000000052
:102360002DE9F04F2DED028BD74B83B01B68019305
:10237000202383F31188D54C07F00AFF06F0A8FE4E
:10238000A56A06F0C5FE07F01BFF2368A34205D02F
:10239000A2699B6892689A42C0F09281002383F3FD
:1023A0001188DFF83083CA4F202686F3118807F0A2
:1023B000EFFE06F08DFED4F8289006F0A9FE07F097
:1023C000FFFE2368A34207D0A2699B6892689A42E5
:1023D00002D2404606F0DCFD4FF0000A8AF3118875
:1023E000C82002F045FF6FF0C70002F029FF0A2065
:1023F00007F0A6FBA9EB05094FF47A7309FB033339
:10240000013BBB42D1D9504602F032FF504602F0A8
:1024100017FFDFF8DC824FF00109202787F31188CE
:1024200007F0B6FE06F054FED4F828A006F070FEC1
:1024300007F0C6FE2368A34207D0A1699A688B689B
:102440009A4202D9A34806F0A3FD002383F3118822
:1024500007E00A2007F074FB40F60B539D4200F2A0
:102460008B8087F3118807F093FE06F031FEA56A92
:1024700006F04EFE07F0A4FE2368A34207D0A16930
:102480009A688B689A4202D9924806F081FD00232F
:1024900083F311886FF0C70002F0EAFEC82002F053
:1024A000CFFE4FF47A7606F0C3FCA5EB0A0505FBD8
:1024B0000665013DA8FB0535431E9BB2B3F5617F60
:1024C0004FEA95158346C4D2B9F1000FC1D101205E
:1024D00002F08EFB322007F033FB484602F088FB07
:1024E00006F0A6FCB0F5617FB3D807EE90BADFED39
:1024F0007A6A9FED7A5ADFED7A5A9FED7A6AB8EEE2
:10250000E77A27EE267AC5EE077AFDEEE77A17EE30
:10251000903A1D4407EE905AF8EE677A322B67EE38
:10252000A67A87EEA58A38EE468A00F3EF8000206F
:1025300002F09EFE002002F083FE40F286639D4280
:10254000694B00F2B9804FF07E5159600BF12302C4
:1025500007EE902AF8EEE77A83ED028AC3ED037A5C
:10256000594B019A1B6860489A4240F0DB8003B0E7
:10257000BDEC028BBDE8F08F002002F079FE002058
:1025800002F05EFE87F3118807F002FE06F0A0FD60
:10259000D4F8289006F0BCFD07F012FE2368A34291
:1025A00007D0A2699B6892689A4202D2494806F015
:1025B000EFFC002383F3118887F3118807F0E8FD0F
:1025C00006F086FDA56A06F0A3FD07F0F9FD236875
:1025D000A34207D0A2699B6892689A4202D23D4802
:1025E00006F0D6FC002686F31188C82002F040FED3
:1025F0006FF0C70002F024FE4FF47A7A06F018FC60
:10260000A5EB090505FB0AA5013DA8FB0535431E01
:102610009BB2B3F5617F4FEA951583460DD2012039
:1026200002F0E6FA322007F08BFA304602F0E0FAC8
:1026300006F0FEFBB0F5617F0FD90A2007F080FAA3
:1026400040F60B539D42B7D9002002F011FE002046
:1026500002F0F6FD4FF00009E0E607EE90BAB8EEA2
:10266000E77ADFED1D7A9FED1D5ADFED205A9FEDD1
:102670001C6ADFED1C6A27EE277AC5EE077AFDEEAD
:10268000E77A17EE903A1D4407EE905AF8EE677A13
:10269000322B67EEA57A87EE868A38EE268A29DC09
:1026A000002002F0E5FD002002F0CAFD40F2866342
:1026B0009D420D4B3FF647AF4FF08041596045E7D3
:1026C000044806F065FC69E6000B00201872002043
:1026D0006F7B1900D0920108A1915742D5DB274AA0
:1026E00000007A440000B44254180020A19157C25F
:1026F000D34D6210A3F132000AFB00F000F2E73084
:10270000A8FB0030800907F01BFAC9E7A3F13200EB
:1027100006FB00F000F2E730A8FB0030800907F06C
:102720000FFA04E7FFF734FD00000000000000008E
:102730002DE9F04F2DED068BD54BD64A1B7812684C
:1027400085B0F0EE408A0392002B00F081820128D0
:102750000546D14B00F08D801A460193002313707B
:10276000202383F31188CD4C07F012FD06F0B0FC56
:10277000D4F828A006F0CCFC07F022FD2368A34281
:1027800007D0A2699B6892689A4202D2C44806F0B8
:10279000FFFB002383F31188F0EEE87ADFF814934F
:1027A0009FEDC09ADFEDC59A17EE908A31E0BE48E2
:1027B00002F05EFD4FF4617002F042FD07EE90BA48
:1027C000F8EEE77A67EE897AC7EEA97A17EE900AF3
:1027D000FEF712FE064640460F46FEF70DFE024685
:1027E0000B4630463946FEF7A9FCA7A3D3E90023E0
:1027F000FFF7D6F838B106F01BFB431E9BB2B3F5CA
:10280000617F064638D30A2007F09AF9BBF1F10F31
:1028100077D8202383F3118807F0BAFC06F058FC20
:10282000A66A06F075FC07F0CBFC2368A34207D02C
:10283000A2699B6892689A4202D2994806F0A8FB66
:10284000002383F311884FF47A73A6EB0A0B0BFB7A
:10285000033B0BF1FF3BA9FB0B3B012D4FEA9B1BFD
:10286000A5D14FF4617002F003FD8F4802F0E8FC3F
:10287000A4E70193187073E7012002F0B9F9322040
:1028800007F05EF9002002F0B3F906F0D1FAB0F5D6
:10289000617FB8D8002002F0EBFC002002F0D0FCF1
:1028A00007EE906AB8EEE77ADFED806A27EE097AE4
:1028B0002336C6EE877A012D0CBF4FF07E524FF0C3
:1028C00080424FF07E51FCEEE77A17EE903A5B447F
:1028D00007EE903AF8EE677A754B27EE899A07EE85
:1028E000906A89EE297A5A600122F8EEE77A83ED40
:1028F000027A1960C3ED037A654B1A70019B1A7056
:102900009BE1002002F0B4FC002002F099FC20239F
:1029100083F3118807F03CFC06F0DAFBA76A06F0A7
:10292000F7FB07F04DFC2368A34207D0A2699B6820
:1029300092689A4202D25A4806F02AFB002383F397
:102940001188019BDFF86C811B78002B00F0BE80A2
:102950009FED548ADFED599A9FED5B9A9FED59AA3E
:10296000DFED57AA06E00A2007F0EAF8B5F5F27F96
:1029700080F04981202383F3118807F009FC06F0D9
:10298000A7FBA56A06F0C4FB07F01AFC2368A34264
:1029900007D0A2699B6892689A4202D2404806F02A
:1029A000F7FA002686F311884FF47A73ED1B05FBC6
:1029B0000335013D3C48A8FB053502F059FCAD0943
:1029C0004FF4617002F03CFC07EE905AB8EEE77AE3
:1029D00027EE087AC7EE297A77EEC97A77EEA87AD9
:1029E000F4EECA7AF1EE10FABDD5F4EEEA7AF1EE21
:1029F00010FAB8DD06F01CFA431E9BB2B3F5617FF6
:102A00008146B0D2012002F0F3F8322007F098F8A6
:102A1000304602F0EDF806F00BFAB0F5617FA2D86F
:102A2000304602F025FC304602F00AFC07EE909A90
:102A3000B8EEE77ADFED1D6A27EE087A09F123097F
:102A4000C6EE877AF22D94BF4FF07E524FF080424F
:102A50004FF07E51FCEEE77A17EE903A2B4407EEEA
:102A6000903AF8EE677A124B27EE888A5A60C8EEE1
:102A7000297A012237EEC99A07EE909A83ED029ADD
:102A8000F8EEE77A35E700BF0000000000C05240D2
:102A9000110B0020000B0020100B002018720020EA
:102AA000D092010879E777437CFCFFFFD5DB274A0A
:102AB00044180020D34D621079E777C300007A44B0
:102AC000000096C200009642000070425FED069A38
:102AD0001FED069A1FED048A1FED06AA5FED08AAF6
:102AE00006E00A2007F02CF8B5F5F27F80F091801F
:102AF000202383F3118807F04BFB06F0E9FAA56A5F
:102B000006F006FB07F05CFB2368A34207D0A2692E
:102B10009B6892689A4202D2504806F039FA002621
:102B200086F311884FF47A73ED1B05FB0335013DE5
:102B30004FF46170A8FB053502F09AFBAD094848D7
:102B400002F07EFB07EE905AB8EEE77A27EE297A7C
:102B5000C7EE097A77EE887A77EEA87AF4EECA7A29
:102B6000F1EE10FABDD5F4EEEA7AF1EE10FAB8DD26
:102B700006F05EF9431E9BB2B3F5617F8146B0D289
:102B8000012002F035F8322006F0DAFF304602F07C
:102B90002FF806F04DF9B0F5617FA2D8304602F06B
:102BA00067FB304602F04CFB07EE909AB8EEE77AEE
:102BB000DFED2C7ADFED2C6A27EE277A09F1230965
:102BC000C6EE877AF22D94BF4FF080424FF07E52CE
:102BD0004FF07E51FCEEE77A17EE903A2B4407EE69
:102BE000903AF8EE677A214B67EEA99A5A60C9EEDF
:102BF000897A012237EE888A07EE909A83ED028A5D
:102C0000F8EEE77A75E6019B19491B7800220A70F5
:102C100013B9174A00231370002002F029FB00208B
:102C200002F00EFB0198114B0178002281F00101A6
:102C30000170DA609A605A601A600E4B039A1B6842
:102C40000A489A4208D105B0BDEC068BBDE8F08F6A
:102C5000094B0193094C5AE6FFF79AFAD092010802
:102C60007CFCFFFF79E77743D5DB274A4418002037
:102C7000110B0020000B0020100B00201872002008
:102C80002DE9F0412DED028B264DF0EEE07A82B079
:102C90002B680193804617EE900AB0EE408A0C46EE
:102CA000FEF7AAFB02460B4600201F49FEF744FA36
:102CB000F0EEC87A064617EE900A0F46FEF79CFB28
:102CC000444502460B46304639461DD0FEF736FADB
:102CD000FEF7EEFE022C08EE100A1DD0012C0ED0DD
:102CE00012491348FFF76CFA019A2B689A42B0EE2A
:102CF000480A14D102B0BDEC028BBDE8F081B0EE01
:102D0000C88AB1EE488AEFE7FEF716FAFEF7D0FE62
:102D1000022C08EE100AE1D1B0EEC88AE4E7FFF712
:102D200037FA00BF000B002000805640E0920108F7
:102D3000406A0020000000000000000000000000C9
:102D4000F0B52DED048B504A504B9FED519A92698E
:102D500050491B68504F916185B0F0EE498A03934A
:102D6000002600F095FBFFF7FBFAD0ED037AD0EDDB
:102D7000019A90ED028AFCEEE77A17EE903A9DB246
:102D8000A7FB0534640806F053F8A04203D206F00E
:102D90004FF8002860D106F04BF8B0F5617FF2D90A
:102DA000322006F0CDFE06F043F8B0F5617FEAD997
:102DB000322006F0C5FE06F03BF8B0F5617FE2D99F
:102DC000FCEEE97ACDED017A9DF80440B0EE480AB8
:102DD0002046FFF7ADFCD0ED007AF5EE407AF1EE3B
:102DE00010FAF3D0D0ED037A90ED017AD0ED028A9B
:102DF000F0EEE77ABCEEC77AFCEEE77A8DED017A69
:102E000017EE903A9DF80410F0EE680A2046B0EEF6
:102E1000480A9EB2FFF734FF40F24C40B0EE409AB1
:102E200000F036FDF0EEC90AB0EEE80A3146284659
:102E3000FFF7E6F901B240F24C4000F079FC41F2B4
:102E4000883006F07DFE00F063F8D0B100F048F85D
:102E50000A2006F075FE84E7214640F24C4000F05F
:102E600067FCF0EEC90AB0EEE80A31462846FFF7E3
:102E7000C7F941F2883006F063FE00F049F80028F7
:102E8000E4D100F05DF8E1E718720020000B0020AB
:102E900000000000C0920108ABAAAAAA000000002E
:102EA00010B50A4C0A4B22680A4884B04FF4AF614F
:102EB000039200220092402206F0EAFD039A236862
:102EC0009A4201D104B010BDFFF762F9000B002057
:102ED000412D0008681800200000000000000000DC
:102EE00000B5084B08491A6883B000200192019A86
:102EF0001B6808709A4202D103B05DF804FBFFF72B
:102F000047F900BF000B0020E01D0020000000007A
:102F100000B5074B07491A68087883B00192019AF7
:102F20001B689A4202D103B05DF804FBFFF730F949
:102F3000000B0020E01D0020000000000000000049
:102F400030B5124D83B000222B6801931146012049
:102F500001F006FD6424012001F02AFE322006F073
:102F6000EFFD002001F024FE322006F0E9FD631E93
:102F700013F0FF04EFD1019A2B689A4204D103B0F9
:102F8000BDE8304001F034BDFFF702F9000B00202E
:102F9000F0B56C4D6C4E2B78326883B00192002BEB
:102FA00040F0C6809FED697A00F5AA604FF4AA73DD
:102FB0004FF0FF3140F26912F0EC017AF4EEC77A7B
:102FC000F1EE10FAC8BF19B203F10103C8BFB0EEA9
:102FD000677A9342F0D16FF4AF73194489B2042930
:102FE00000F2A6805A4B5B4C5B4F01221A70002105
:102FF000032001F085FD0121002001F081FDA7FBE8
:103000000430800906F09CFD0021084601F078FD9F
:103010000121084601F074FDA4F59C402038A7FB6F
:103020000030800906F08CFD0021012001F068FDD0
:103030000121022001F064FDA4F51C404038A7FBEB
:103040000030800906F07CFD0021022001F058FDCF
:103050000121032001F054FDA4F56A406038A7FB6C
:1030600000308009A4F51C3406F06AFDA4F58074D4
:1030700040F2E7339C42BAD105240021032001F03D
:103080003FFD0121002001F03BFD4B2006F058FDE3
:103090000021084601F034FD0121084601F030FD11
:1030A0004B2006F04DFD0021012001F029FD0121FA
:1030B000022001F025FD4B2006F042FD00210220F8
:1030C00001F01EFD0121032001F01AFD4B2006F046
:1030D00037FD631E13F0FF04CFD10B240121002024
:1030E00001F00EFD0121084601F00AFD0121022038
:1030F00001F006FD0121032001F002FD4B2006F046
:103100001FFD0021084601F0FBFC0021012001F019
:10311000F7FC0021022001F0F3FC0021032001F064
:10312000EFFC4B2006F00CFD631E13F0FF04D5D11D
:10313000019A336800219A42297001D103B0F0BD91
:10314000FFF726F8120B0020000B002000401C4661
:10315000E01D0020E7560700D34D6210000000007C
:10316000F0B5384E384D336883B001932B88002971
:103170005FD0B0F90620354C07EE902A5A1C04EBBC
:10318000830792B202339BB2F8EEE77A04EB820235
:103190004FF0000EB3F5006FC7ED007A2B80C2F838
:1031A00000E02BD20139C1F38D0100EBC1010027F2
:1031B0001AE0B0F90E2007EE902A5A1C92B203F1E1
:1031C000020C04EB8307F8EEE77A04EB82021FFAA5
:1031D0008CF3B3F5006FC7ED007A00F108004FF0F3
:1031E0000107C2F800E008D28842E2D13FBB019A51
:1031F00033689A4221D103B0F0BD2B8013494FF4BC
:10320000806000F075FA4FF4806211490F4811F0A8
:1032100077FF104A019813783168013300248842FF
:1032200013702C8009D10A4803B0BDE8F040FFF7C5
:10323000AFBEB3F5006FDAD3E0E7FEF7A9FF2B804E
:10324000D5E700BF000B0020E64D0020E41D002064
:10325000E43D0020E44D00200000000000000000DC
:103260002DE970432DED0C8B01FB01F303F5AF232A
:10327000814EDFED828A326882B0054603F5C8636D
:103280004FF4966005FB153300FB01F093FBF0F063
:1032900001920C46FEF79EF841EC100B0FF078FD02
:1032A00051EC100BFEF7BCFB07EE900A2046B8EE7F
:1032B000E78AFEF78FF8804618EE100A8946FEF777
:1032C0009BF841EC100B41EC190B0FF0A1FCB0EE98
:1032D00040AAF0EE60AAB0EE490AF0EE690A0FF0DB
:1032E000F7FC9FED677ADFED677AB0EE409AF0EE7B
:1032F000609A28EE078AF0EE006A88EE27DAB0EED0
:10330000688AADEE268A68EE277AC7EE877A17EECE
:10331000900AFEF771F841EC100B41EC1C0B0FF01A
:1033200077FCB0EE40BAF0EE60BAB0EE4C0AF0EEC8
:103330006C0A0FF0CDFCAC4252D816D39FED520A66
:103340003DEE000A4FF47A7000F0A2FA019A336859
:103350009A4240F08B804B214FF47A7002B0BDEC62
:103360000C8BBDE8704300F0E3B99FED488A4FF441
:103370007A703DEE480A00F08BFA53EC1A2B404667
:103380004946FEF795F83AA3D3E90023FDF7D4FEAA
:10339000FEF746FB80EAE071A1EBE07109B24FF461
:1033A0007A7000F0C5F99FED380A4FF47A7000F09A
:1033B0006FFA53EC192B40464946FEF779F8FEF7B1
:1033C0002FFB80EAE071A1EBE07196394FF47A703F
:1033D00009B200F0ADF9B0EE480A4FF47A70B3E7E5
:1033E000B0EE40CAF0EE60CABDEEC80A4FF47A7083
:1033F00010EE103A002BB8BF5B4200EE103AB8EE68
:10340000C00A00F045FA53EC1B2B40464946FEF734
:103410004FF817A3D3E90023FDF78EFEFEF700FB5C
:1034200080EAE071A1EBE07109B24FF47A7000F02C
:103430007FF9B0EE680A4FF47A7000F029FA53EC85
:103440001C2B40464946FEF733F8FEF7E9FA80EABE
:10345000E071A1EBE07196394FF47A7009B200F097
:1034600067F99FED0A0A4FF47A706DE7FEF790FE58
:103470000000000000C07240000B00200000B4C239
:103480000000B443DB0FC9400000B44200003443E5
:103490002DE9F04F2DED048BDFF844929FED8A8AE1
:1034A000D9F80030DFED898A9FED899A83B04FF01B
:1034B0000008019345464646C246474605F0B8FC1B
:1034C0000446322006F03CFB05F0B2FC04F1320366
:1034D000984200F3BA8005F0ABFCA4F132039842A5
:1034E000C0F2B3804FF4967001F0AAFE794801F063
:1034F000BFFE002001F07CFB002001F059FB631EA1
:103500009BB240F28232934200F2B080C6B3002DEB
:1035100054D0012001F04CFB012001F069FB7B1E1F
:10352000C62B78D9B7F5C87F80F08380BAF5C87FFD
:103530007FD2002F40F0BE800AF1FF33C62B40F24D
:10354000818051463846FFF78BFE002001F078FE5F
:10355000002001F08DFE002001F04AFB002001F068
:1035600027FB019AD9F800309A4240F0AB80002145
:10357000084603B0BDEC048BBDE8F04F01F0C0BAC3
:1035800004F12307BFB2202383F31188524E06F0C3
:10359000FFFD05F09DFDD6F8288005F0B9FD06F089
:1035A0000FFE3368B34204D0B2699B6892689A42B6
:1035B00064D3002383F31188002DAAD1202383F341
:1035C0001188454E06F0E4FD05F082FDD6F828B0DE
:1035D00005F09EFD06F0F4FD3368B34207D0B269F2
:1035E0009B6892689A4202D23C4805F0D1FC0023C5
:1035F00083F31188ABEB080BBBF5FA7F55D901209B
:1036000001F0D6FA012001F0F3FA7B1E2334C62B19
:103610001FFA84FA86D8B0EE480A4FF4167000F00C
:1036200037F90025C8214FF4167000F081F82E46B6
:1036300044E70AF1FF33C62B04D9B7F5487F24D9F4
:10364000BA4526D2B0EE680AE7E70221002001F071
:1036500057FA4FF4967001F0F3FD1E4801F008FE92
:10366000002001F0C5FA002001F0A2FAB6B90DB9A8
:103670002E4623E7012001F0BBFA1FE7174805F0AB
:1036800087FC002383F3118896E7BAF5487F7FF61D
:1036900058AFBA4513D801252E460FE7012001F097
:1036A00087FA002D3FF40AAF36E7012001F080FAD7
:1036B000012603E7BAF1000F3FF443AFABE7B0EEEA
:1036C000490AAAE7FEF764FD0000704200002AC321
:1036D000000070C2D4FEFFFF18720020F0920108B3
:1036E000000B0020000000000000000000000000AF
:1036F00000B50D4B83B01A680192B0F5806F019A46
:103700001B6804D09A420CD103B05DF804FB9A42C6
:1037100007D106480123002203B05DF804EB11F045
:103720006FBCFEF735FD00BF000B002000930108C1
:103730002DE9F04F4F4B85B01B68039307460846B1
:103740000E46FDF747FE21F00043002219464A4B82
:10375000FDF7AEFE494B04469A2000FB07F0A3FBA1
:103760000030C00907EE900AF8EEE77A0D4617EE32
:10377000900AFDF741FE02460B4620462946FDF71A
:10378000C1FFFEF775F92023804683F311883C4C76
:1037900006F0FEFC05F09CFCD4F8289005F0B8FC7F
:1037A00006F00EFD2368A34204D0A2699B689268CC
:1037B0009A4259D3002383F31188B8F1000F3BD00C
:1037C000DFF8C4B04FF0200A08E043D1304601F0E2
:1037D00037FD304601F04CFDA8452DD98AF31188FC
:1037E00006F0D6FC05F074FCA56A05F091FC06F025
:1037F000E7FC2368A34207D0A2699B6892689A42BB
:1038000002D2204805F0C4FB002383F311884FF453
:103810007A73A5EB090505FB0335013DABFB0535C7
:10382000002E4FEA9515D0DD384601F009FD3846E7
:1038300001F01EFDA845D1D8002001F001FD0D4B7F
:10384000039A1B689A4213D1002005B0BDE8F04FDF
:1038500001F00EBD7B421846019301F0F1FC019B83
:10386000184601F005FDB7E7064805F091FBA1E712
:10387000FEF78EFC000B002000408F40B5814E1BF0
:103880001872002010930108D34D62100000000050
:103890002DE9F04F2DED028B554BF0EEC07A83B041
:1038A0001B680193064617EE900AB0EE408AFDF7BA
:1038B000A3FD00224F4BFDF7FBFD4F4B4F4A044643
:1038C0004FF4B47000FB06F0A3FB003083099A208C
:1038D00000FB03F0A2FB0030C00907EE900AF8EEEF
:1038E000E77A0D4617EE900AFDF786FD02460B4675
:1038F00020462946FDF706FFFEF7BAF820230746C3
:1039000083F311883E4C06F043FC05F0E1FBD4F84C
:10391000288005F0FDFB06F053FC2368A34204D089
:10392000A2699B6892689A425BD3002383F3118853
:10393000002F3FD0DFF8D0A04FF0200908E049D495
:10394000584601F07DFC584601F092FCAF4231D957
:1039500089F3118806F01CFC05F0BAFBA56A05F096
:10396000D7FB06F02DFC2368A34207D0A2699B6811
:1039700092689A4202D2234805F00AFB4FF0000BEE
:103980008BF311884FF47A73A5EB080505FB03351B
:10399000013DB5EEC08AAAFB0535F1EE10FA4FEAFB
:1039A0009515CCDD304601F04BFC704201F060FC17
:1039B000AF42CDD8002001F043FC0D4B019A1B68AB
:1039C0009A4212D1002003B0BDEC028BBDE8F04F4B
:1039D00001F04EBC704201F033FC304601F048FC6F
:1039E000B4E7084805F0D4FA9FE7FEF7D1FB00BF23
:1039F000000B002000408F40C3971B62B5814E1B17
:103A00001872002010930108D34D621000000000CE
:103A100030B54368174D1A68296883B00446019190
:103A200012B304220270DA681B68520811469847E4
:103A30002378042B18D0202383F3118806F0D8FBB9
:103A400005F086FB04F10800002106F069F905F095
:103A50009FFB06F0E5FB002383F31188019A2B6896
:103A60009A4204D103B030BD02232370E3E7FEF78E
:103A70008FFB00BF000B00200000000000000000D2
:103A800070B5194D82B02B68019311F00C0F0C46E4
:103A9000064622D114F0200109D0019A2B689A42DF
:103AA0001FD1304602B0BDE87040FFF7B1BFE3065A
:103AB0000DD57268136853B1019C2868844210D1F7
:103AC000D2683046520802B0BDE870401847019AEB
:103AD0002B689A4205D102B070BD044805F058FA2F
:103AE000D8E7FEF755FB00BF000B0020409301080C
:103AF00070B5194D82B02B68019311F00C0F0C4674
:103B0000064622D114F0200109D0019A2B689A426E
:103B10001FD1304602B0BDE87040FFF779BFE30621
:103B20000DD57268136853B1019C2868844210D186
:103B3000D2683046520802B0BDE870401847019A7A
:103B40002B689A4205D102B070BD044805F020FAF6
:103B5000D8E7FEF71DFB00BF000B002040930108D3
:103B600030B50F4D0F4C2A680F4B83B020460192A1
:103B70004FF6FF721A8000F05BF90C4B01992A682E
:103B80000B480C4D2562636203F1240591420A4BF8
:103B90002363C4E90A5001D103B030BDFEF7F8FA3F
:103BA000000B0020004E0020E84D002088B40108E2
:103BB0001E010100003C0040460001000000000022
:103BC00070B52C4D03782A6882B0012B044601920F
:103BD00024D06368E26A5989236B22F4F04223F40B
:103BE000F043090544BF42F4205243F42053C4E992
:103BF0000B23236A00221A606268236A52891A60C2
:103C0000236A03225A60226A136843F04003136058
:103C1000019A2B689A422BD102B070BD164EB04269
:103C20000AD0D4E9083212680C339360A26A236A7E
:103C300012680C339360CCE70346104A406A0A21AD
:103C40000AF04EFB80B9B06A0B4B0D4A0A210AF00C
:103C500047FB28B90B4A136C43F400431364E0E7B5
:103C6000094805F095F9F5E7074805F091F9EAE705
:103C7000FEF78EFA000B0020004E0020F13A0008FB
:103C8000813A00080038024020930108000000003B
:103C900070B5456A174C2D68266882B00196EB60B6
:103CA000436A1B685960456AC36A2D6843F48063A0
:103CB0002B60836A1B68DA60836A1B685960826ABA
:103CC000036B126843F480631360436A1A681368D5
:103CD00043F001031360836A1A68136843F0010319
:103CE0001360019A23689A4201D102B070BDFEF7B9
:103CF0004FFA00BF000B0020000000000000000091
:103D000030B5104D81682B680F4A83B001930B6862
:103D100023F001030B608168946A03E0936A1B1B24
:103D2000C72B09D8086810F00100F7D1019A2B6859
:103D30009A4204D103B030BD4FF0FF30F6E7FEF7F2
:103D400027FA00BF000B00201872002000000000BE
:103D5000F0B5284D83B02B68019306F0E1F905F02A
:103D600037FA254B1E69F20715D55A69234C42F0E4
:103D700001025A612778BB1F012B2AD905226368EB
:103D800022701B680BB120469847042F27D0022FC2
:103D900025D003232370B30710D5174A174C536956
:103DA00043F0020353612378032B1DD063689B68A3
:103DB0000622227013B101211048984705F030FA0D
:103DC000019A2B689A4213D103B0BDE8F04007F086
:103DD000CFB9019A2B689A420AD103B0F0BD0223F1
:103DE0002370B307EAD5D8E72046FFF789FFDDE760
:103DF000FEF7CEF9000B002000000550EC4D00202E
:103E000000B5074B83B01A680192019A1B689A4269
:103E100004D103B05DF804EBFFF7A2BEFEF7B8F9DA
:103E2000000B002000000000000000000000000067
:103E300000B50A4B83B01A68019201220270019901
:103E40001A6800239142C0E9013305D10C3003B058
:103E50005DF804EB06F0D4BAFEF79AF9000B0020E7
:103E600070B51E4D82B02B6801930E46044670B3A8
:103E700069B3202383F3118806F08AF905F028F945
:103E80002378013B012B02D9154805F081F8204623
:103E90006660FFF795FE0223237005F039F906F0FE
:103EA0008FF9104B1A689A4204D0996993688A680E
:103EB0009A4208D3002383F31188019A2B689A420F
:103EC00009D102B070BD084805F062F8F2E7044875
:103ED00005F05EF8CDE7FEF75BF900BF000B0020B0
:103EE0006093010818720020509301080000000040
:103EF0002DE9F041214D82B02C6801940E46904688
:103F00001F46044600B171BB1D4805F041F820234F
:103F100083F3118806F03CF905F0DAF82378022BD8
:103F200002D0174805F034F803203B46424631469C
:103F300020702046FFF7ACFE05F0EAF806F040F9E5
:103F4000104B1A689A4204D0996993688A689A4219
:103F50000ED3002383F31188019A2B689A420BD168
:103F600002B0BDE8F081002BCED0002ACFD1CBE744
:103F7000054805F00DF8ECE7FEF70AF9000B002004
:103F8000709301081872002050930108000000008F
:103F900000B5084B83B01A680192019A1B689A42D7
:103FA00005D1054803B05DF804EB04F0F1BFFEF75E
:103FB000EFF800BF000B0020909301080000000004
:103FC00070B51849184C0A78236882B001934FF4F1
:103FD000B47303FB00F562B1019A23689A421FD1C2
:103FE00012481349B1FBF5F102B0BDE8704007F08B
:103FF00047BC1048104A01260E70802141830F49AA
:104000000F4807F005FB019A23689A4208D1074838
:104010000749B1FBF5F102B0BDE8704007F098BC6C
:10402000FEF7B6F8584E0020000B0020CC7F002091
:1040300000BD0105000C0240A0930108484E00207D
:10404000687C00200000000000000000000000006C
:1040500010B50C4C0C4B22680C4882B001928022A7
:104060001A8307F0D5FC0A4807F012FB019A23686F
:10407000084900209A42087001D102B010BDFEF735
:1040800087F800BF000B0020000C0240CC7F00200E
:10409000687C0020584E0020000000000000000056
:1040A00070B5154D154A164B2968164E9E6082B0A4
:1040B00000244FF400601080019194701146124862
:1040C0005C6001221A60DC6007F022FA0F4B104E90
:1040D00010485C60202219469A60DC601E6007F080
:1040E00087FB019A2B689A4204D102B0BDE8704068
:1040F000FFF7AEBFFEF74CF8000B0020444E002047
:10410000484E0020913F0008687C0020344E00207B
:1041100000BD0105CC7F0020000000000000000071
:104120002DE9F04F394A3A4B126883B001240192CD
:104130001C70002963D04FF00008364CC246C346BD
:10414000C1464746C446434647F6FF7E1DE0AB45A1
:10415000A8BFAB46024432F9026CB2F90450B44233
:10416000B8BF3446B645A8BFB6464D4545DCA84560
:10417000A8BFA846B2F90220BA420EDC0433924529
:104180009BB2A8BF924699420CD95D1C6A0030F9D7
:1041900015506545DBDDAC46DCE704339BB2994244
:1041A0001746F2D8A4EB0E04ACEB0B0CA7EB0A07F6
:1041B000A9EB0808A4B21FFA8CFCBFB21FFA88F85A
:1041C000154A12491480019C0968144BA2F802C0D8
:1041D0009780B0F8F8C4B0F8FA64A2F80680B0F896
:1041E000FC54B0F8FE24A3F800C08C425E809D8091
:1041F000DA8008D103B0BDE8F08FA946BAE7884657
:104200000F468C46DCE7FDF7C3FF00BF000B002024
:10421000594E00200080FFFF644E00205C4E0020BD
:1042200070B53F4B3F4C1A78236882B0012A019346
:1042300005D0019A23689A4270D102B070BD3A4904
:104240003A4B4D6C45F480354D644E6A002546F47A
:1042500080364E624D621D61DD60196A21F00101F8
:104260001962996921F003019961996941F001018D
:104270009961996921F0F0019961196A21F00A01A7
:104280001962996921F00C019961996821F0700116
:104290009960996841F050019960996821F48031E2
:1042A00021F007019960996841F007019960196848
:1042B00021F440711960DA629D625A61196A21F035
:1042C00010011962996921F440719961996921F08D
:1042D000807121F4E0419961996941F4C04199618B
:1042E000196A21F0A00119629A639A6942F4006286
:1042F0009A611A6A22F480621A621A6A42F0110202
:104300001A621A6842F001021A6020B100906846F1
:1043100000F076F98DE7064B0093F8E7FDF738FFDC
:10432000547F0020000B0020003802400040014074
:104330002141000800000000000000000000000013
:1043400070B5114C82B0236801930E4615462023A8
:1043500083F3118805F04CFF04F0FAFE0B4B0C4878
:10436000C3E9006506F00CF804F012FF05F058FFF1
:10437000002383F31188019A23689A4201D102B085
:1043800070BDFDF705FF00BF000B0020806300201B
:104390006C4E002000000000000000000000000043
:1043A00070B5114C82B0236801930E461546202348
:1043B00083F3118805F01CFF04F0CAFE0B4B0C4878
:1043C000C3E9006505F0DCFF04F0E2FE05F028FF1C
:1043D000002383F31188019A23689A4201D102B025
:1043E00070BDFDF7D5FE00BF000B0020646100200A
:1043F0006C4E0020000000000000000000000000E3
:104400002DE9F04F624B63499A69634B916185B026
:104410001B6803935E4B9B6993F821305B0700F1A7
:10442000AD805E4805F074FF5C4805F071FF584BA5
:104430009B6993F8212012F0040240F09F80584DB0
:1044400058482B6801680446406805EB830304EB79
:10445000810103F50279430001F10808019343D07B
:10446000DFF850B1504BDFF85CA1012018F8125072
:1044700018F8006019F8121019F8004005F0550CF2
:10448000770806F0550613F80CC09E5D01F0550E36
:104490004CEA061649084FEA540C01F0550104F0A5
:1044A00055040CF0550C6D0813F80EE0595C1C5DBA
:1044B00013F80CC00BF8126005F0550507F055070E
:1044C00041EA0C114EEA041E0AF812E05D5D0AF89A
:1044D0000010DF5D0199013245EA071591420BF8A2
:1044E000005000F10200C1D1304B31493148324D0A
:1044F0000422FBF7BDFF314B314932480422FBF760
:10450000B7FF314B314932480422FBF7B1FF314B41
:10451000314932480422FBF7ABFFDFF8D4C02868EA
:104520009CF80070224A264900EBC71302F14006AE
:1045300014881C8054885C804C889C80043231F83C
:10454000044BDC80964203F10803F1D1092F11D10D
:10455000234B00221B688CF800204FF420719847F1
:104560002B68204A204993420B6006BF1F4B2B60EB
:104570002A604FE701378CF800704BE7064B039A2F
:104580001B689A4202D105B0BDE8F08FFDF700FE2E
:104590001872002070960108000B00206C4E00205D
:1045A0008063002064610020140B00203C5F002029
:1045B000F853002038540020940B0020A45F002002
:1045C0000C6000204C600020705F0020FA53002037
:1045D00039540020D85F00200E6000204D6000207C
:1045E0004C61002038550020980B0020385A0020DC
:1045F000385F002000000000000000000000000004
:104600002DE9F04F494A0168494B116085B00021FE
:104610000E461B684748039305F01AFE4FF4AF613E
:10462000454B009641224548454DDFF84891454CA1
:10463000DFF844A1444F05F02BFA444B444A18607C
:10464000136BC5F804A043F480534FF002184FF4E5
:104650007A5B13632846C5E90298A5F800B0FBF71A
:104660004FFE2046C4E901A9C4F80C80A4F800B0AC
:10467000FBF746FE05F13400C5E90EA9C5F84080F8
:10468000A5F834B0FBF73CFE324DC4F8408004F18D
:104690003400C4E90EA9A4F834B0FBF731FE31466A
:1046A00040F20C42384611F0C3FBDFF8D0902A4AA2
:1046B0006E604FF400634FF080082E812A606B819A
:1046C000264CC5F80C80C7F80894FFF799FB2946DB
:1046D0002348244DFFF7C4FB07F5027307F10802D6
:1046E0004FF480711E48FFF703FC314620464FF41B
:1046F000037211F09DFB1C4B1C4AC4F8089208344D
:104700001A611946C3E900641948C3E9028507F034
:1047100057FB074B039A1B689A4205D1144805B012
:10472000BDE8F04F07F094BBFDF732FD4C6100206F
:10473000000B00206C4E002001440008804E002039
:104740003C5F0020A45F002080630020784E0020A2
:10475000003802407063002041430008646100207B
:10476000004E0020A1430008506100202C030800E7
:10477000547F0020000020410000FA45EFBEADDE6E
:1047800010B50B4C0B48236882B0019305F020FF55
:10479000094806F0FDF8019A23689A4205D10548B8
:1047A00002B0BDE8104005F04BBFFDF7F1FC00BFC3
:1047B000000B0020A80B0020A00B00200000000030
:1047C00030B50F4C83B0236801930D4608B1FFF755
:1047D000F7FB4FF47A700B4900FB05F000F2E7306D
:1047E000A1FB0030800905F0ABF9019A23689A42D9
:1047F00004D103B0BDE83040FFF72ABCFDF7C8FC88
:10480000000B0020D34D62100000000000000000EB
:104810002DE9F0432DED028BDFF8FC80344BD8F806
:10482000182034491B68344DDFED348A9FED348AFB
:10483000344E354F916183B00193202383F3118867
:1048400005F0A6FC04F044FC304805F011FA28609D
:1048500004F05EFC05F0B4FCD8F80030434508D005
:10486000D8F818209B6892689A4202D2284804F02F
:104870008FFB4FF0000989F311882B681A8972BBEE
:1048800030E0D3E9001202EB890393ED007A31F8AE
:104890001900C8EE877A09F10109FCEEE77A17EEF4
:1048A000903A9CB22146FFF78BFF07EE904AF8EE54
:1048B000E77A4FF47A7367EE887AFCEEE77A17EEC0
:1048C000902A90B203FB00F000F2E730A7FB003023
:1048D000800905F035F92B681A894A4502DD3278DE
:1048E000002ACED100230B48337005F0D1FFA4E796
:1048F000000B0020809601089067002000007A4499
:104900006666A63F9C0B0020D34D62108C6700208A
:1049100090960108A00B00201872002000000000F3
:1049200010B50A4C0A4B22680A4884B04FF4FC7157
:10493000039200220092402205F0AAF8039A23680D
:104940009A4201D104B010BDFDF722FC000B0020FB
:1049500011480008986700200000000000000000D7
:1049600030B51E4C85B0236803930F2815D00E2850
:1049700015D81B4A00EB400002EB8002194803687F
:1049800099B963B103992368174D012499422C709A
:1049900008BF114617D0FDF7FBFB002AEED1039AA2
:1049A00023689A42F7D105B030BD02290E4D04BFED
:1049B0000021297063B1039923680120994228706E
:1049C000E9D10848114605B0BDE8304005F008BA05
:1049D0000192FFF7D5FE019AEDE700BF000B002022
:1049E000A09B01088C6700209C0B002000000000A9
:1049F00000B5084B08491A6883B000200192019A5B
:104A00001B6808709A4202D103B05DF804FBFDF701
:104A1000BFFB00BF000B00209C0B0020000000002B
:104A200070B5164E16483368154D82B005224FF406
:104A3000807101930BF0B4FA20246B6983F48073C6
:104A40006B61012005F07CF8631E13F0FF04F4D1C4
:104A50004FF4807140F20622298309480BF0A0FA36
:104A6000019A33689A4206D10649074802B0BDE868
:104A7000704007F035B8FDF78BFB00BF000B00203E
:104A800000040240E0A80108987C0020000000001B
:104A900000B50C4A0C4B1278196883B0012A0191B9
:104AA000019A1B6804D09A4209D103B05DF804FB57
:104AB0009A4204D103B05DF804EBFFF7B1BFFDF7F4
:104AC00067FB00BF987C0020000B00200000000066
:104AD00000B5084B83B01A680192019A1B689A428C
:104AE00005D1054803B05DF804EB07F041B8FDF7C8
:104AF0004FFB00BF000B0020987C0020000000004E
:104B000070B5294D82B02B6801930E46032841D819
:104B1000DFE800F01A120A02012922D9234A536958
:104B200083F40063536116E0012926D91F4A5369B3
:104B300083F4806353610EE0012918D91B4A53693D
:104B400083F04003536106E001291CD9174A5369D9
:104B500083F020035361019A2B689A4218D102B066
:104B600070BD124B4FF4006229B15A83F3E70F4B2B
:104B700040220029F9D11A83EDE70C4B4FF48062F3
:104B80000029F8D0F1E7094B20220029F3D0ECE707
:104B9000FDF7FEFA0024E0B231460134FFF7B0FF22
:104BA000042CF8D1D7E700BF000B0020000C024016
:104BB00000B50D4B83B01A68019201280BD90B493F
:104BC0004A6982F004024A61019A1B689A4209D13B
:104BD00003B05DF804FB054A042108B95183F3E7EB
:104BE0001183F1E7FDF7D4FA000B00200004024026
:104BF00000B50E4B83B01A68019201280BD90C49FD
:104C00004A6982F480424A61019A1B689A420AD139
:104C100003B05DF804FB064A4FF4804108B95183A4
:104C2000F2E71183F0E7FDF7B3FA00BF000B0020B5
:104C3000000C024000000000000000000000000026
:104C40002DE9F043254E83B034680194042A9DF881
:104C50002890144605460F46984639D9B9F1000FF9
:104C600014BF00224FF08052640002EB0863013C45
:104C70001C4405F00F0527F01F07202383F311883C
:104C800005F086FA3D4304F023FA154B1035DD603C
:104C90001C6104F03DFA05F093FA124B1A689A422F
:104CA00004D0996993688A689A420DD3002383F3EC
:104CB0001188BFF36F8FBFF34F8F019A33689A4209
:104CC0000AD103B0BDE8F083074804F061F9EDE7CD
:104CD000064804F05DF9C1E7FDF75AFA000B002021
:104CE00090ED00E01872002070A9010850A9010899
:104CF00030B5224D224C2B68224A85B0039363685D
:104D000043F004036360536A43F480335362202307
:104D100083F3118805F03CFA04F0DAF917221A4BF4
:104D2000E260236104F0F4F905F04AFA174B1A68BF
:104D30009A4204D0996993688A689A4218D30020ED
:104D400080F31188BFF36F8FBFF34F8F03231D22B2
:104D500000904FF00051FFF773FF094A536843F08A
:104D600001035360039A2B689A4205D105B030BD08
:104D7000074804F00DF9E2E7FDF70AFA000B0020FE
:104D800090ED00E000ED00E0090000101872002036
:104D900070A90108000000000000000000000000F1
:104DA00070B51A4D1A4C1B4E0FCD0FC49EB02A6819
:104DB000336822801D93EFF30981682203A8FDF771
:104DC0004FF8154B9D6AAA0714D4EB0708D5124B70
:104DD00008995B6B114A00910D48802111F078F819
:104DE0001D9A33689A420FD109481EB0BDE8704041
:104DF00004F0CEB8099A5B6B0092A4F11000084A47
:104E0000802111F065F8E0E7FDF7C2F934A9010847
:104E100090690020000B002000ED00E010A90108BF
:104E2000F0A80108000000000000000000000000E1
:104E300000B51F4B0278196883B00191E2B11D4A99
:104E40004FF4005111834278EAB11A4A4FF480516D
:104E500011838278F2B1174A4FF480411183C278EE
:104E6000FAB9144A4FF400415183019A1B689A42DF
:104E70001CD103B05DF804FB0E4A4FF4005151837E
:104E80004278002AE1D10B4A4FF480515183827855
:104E9000002AE0D1074A4FF480415183C278002AAA
:104EA000DFD0044A4FF400411183DEE7FDF770F9CB
:104EB000000B002000100240000000000000000075
:104EC00000B51F4B0278196883B00191E2B11D4A09
:104ED0004FF4007111834278EAB11A4A4FF480719D
:104EE00011838278F2B1174A4FF400611183C278BE
:104EF000FAB9144A4FF480615183019A1B689A42AF
:104F00001CD103B05DF804FB0E4A4FF400715183CD
:104F10004278002AE1D10B4A4FF4807151838278A4
:104F2000002AE0D1074A4FF400615183C278002A79
:104F3000DFD0044A4FF480611183DEE7FDF728F9E2
:104F4000000B0020001002400000000000000000E4
:104F500030B50C4A0C4B116883B04FF400550191E9
:104F60004FF480544FF400414FF480405D835C83E4
:104F70005883598301991368994201D103B030BD18
:104F8000FDF706F9000B00200010024000000000B1
:104F900030B50C4A0C4B116883B04FF40075019189
:104FA0004FF480744FF480614FF400605D835C8344
:104FB0005883598301991368994201D103B030BDD8
:104FC000FDF7E6F8000B0020001002400000000092
:104FD00010B50B4C0B48236882B099220021019335
:104FE00007F046F8019A23689A4206D10548002145
:104FF00002B0BDE8104007F023B9FDF7C9F800BFC3
:10500000000B0020F87F00200000000000000000DE
:1050100010B50B4C0B48236882B0992200210193F4
:1050200007F026F8019A23689A4206D10548002124
:1050300002B0BDE8104007F003B9FDF7A9F800BFC2
:10504000000B002014800020000000000000000081
:1050500000B5084B83B01A680192019A1B689A4206
:1050600006D10548002103B05DF804EB07F050B805
:10507000FDF78EF8000B0020F87F002000000000F4
:1050800000B5084B83B01A680192019A1B689A42D6
:1050900006D10548002103B05DF804EB07F038B8ED
:1050A000FDF776F8000B00201480002000000000BF
:1050B00070B51A4C1A4E2378326882B0022B0192D6
:1050C000A26811D165781748013505F0070500EB96
:1050D0008500904763686570013B6360019A33689F
:1050E0009A4219D102B070BD012B08D001993368E2
:1050F000994211D10C4802B0BDE870401047657864
:105100000848013D05F0070500EB850090476368FE
:10511000657001336360E1E7FDF73AF8286A002023
:10512000000B002010AA010800AA010800000000DE
:1051300070B51A4C1A4E2378326882B0012B019256
:10514000A26811D165781748013505F0070500EB15
:10515000850090476368657001336360019A336826
:105160009A4219D102B070BD022B08D00199336860
:10517000994211D10C4802B0BDE8704010476578E3
:105180000848013D05F0070500EB8500904763687E
:105190006570013B6360E1E7FCF7FAFF106A0020ED
:1051A000000B002010AA010800AA0108000000005E
:1051B00030B51F4D85B02B68039340F24C439942A4
:1051C000044626DCA3F69803994211DB4B00002B22
:1051D00029D10370036998474FF47A71039A2B68B9
:1051E0009A421ED1606905B0BDE8304006F0F8BEB5
:1051F000104B02225B42227040F2892293420E49F8
:1052000091FBF3F189B207DC0191E36898470199BA
:10521000E4E7012303702D21019123699847019947
:10522000DCE7FCF7B5FFE4DD01220270E4E700BF34
:10523000000B002068F7FFFFA086010000000000BF
:1052400000B5084B83B01A680192019A1B689A4214
:1052500006D10146044803B05DF804EBFFF7A8BF90
:10526000FCF796FF000B0020106A002000000000F1
:1052700000B5084B83B01A680192019A1B689A42E4
:1052800006D10146044803B05DF804EBFFF790BF78
:10529000FCF77EFF000B0020286A002000000000C1
:1052A00070B51D4E1D4A1E4B30681E491E4C916044
:1052B00082B00021D46001901C4C1D481D4D9D60A2
:1052C000117051705160106154611B481B4A1C4D94
:1052D000D8601C48197059705960C3E90425FFF75C
:1052E000A7FD1848FFF7ECFD1749204606F028FEF9
:1052F000204606F05DFF2846144906F021FE019A7B
:1053000033689A4205D1284602B0BDE8704006F0E5
:105310004FBFFCF73DFF00BF000B0020286A0020B4
:10532000106A0020314E0008D14F0008F87F00209D
:1053300051500008C14E000811500008815000086B
:105340001480002000AA0108C0A9010880A9010852
:105350000A490B4B09680B4A82B020200191402179
:1053600058834FF4806559834FF400644FF48040B4
:1053700004215D835C8358835183FEE7000B00208A
:10538000000C024000040240000000000000000089
:1053900000B50F4B83B01868019002290CD0032987
:1053A0000CD001290B4818BF0020019A1B689A42B3
:1053B0000BD103B05DF804FB0748F6E7032A96BF5C
:1053C0000648002000EBC200EFE7FCF7E1FE00BF5B
:1053D000000B002010AB0108B0AA0108C0AB010807
:1053E00070B5154C82B02368019302291CD10D467B
:1053F0000646202383F3118804F0FAFE03F0A8FE8A
:1054000030460E4A012108F0A3F829460C4A3046DE
:1054100008F09EF80B4807F09BFE03F0B9FE04F07D
:10542000FFFE002383F31188019A23689A4201D179
:1054300002B070BDFCF7ACFE000B002030AA0108E2
:1054400060AA0108406A002000000000000000007F
:1054500030B5134D134C2B68134883B0019307F0FC
:10546000EFFD1249104807F01BFE226D936B23F4E9
:10547000002393634FF47A7004F062FB20460C49DA
:1054800008F016F8226D936B43F400239363019A9E
:105490002B689A4201D103B030BDFCF779FE00BF02
:1054A000000B0020D87C0020406A002090AA010850
:1054B000A0AA010800000000000000000000000099
:1054C00000B5084B83B01A680192019A1B689A4292
:1054D00005D1054803B05DF804EB05F079B8FCF799
:1054E00057FE00BF000B0020BC0B00200000000096
:1054F00000B5084B83B01A680192019A1B689A4262
:1055000005D1054803B05DF804EB05F099B8FCF748
:105510003FFE00BF000B0020BC0B0020000000007D
:1055200070B50D4C82B0236801930D1E06460DDD4B
:10553000284605F095FD18B90C2333604FF0FF3075
:10554000019A23689A4205D102B070BD034803F066
:105550001FFDEDE7FCF71CFE000B0020E0AB01088F
:1055600000B5064B83B01A680192019A1B689A42F3
:1055700002D103B05DF804FBFCF70AFE000B00202B
:1055800000B5074B83B01A680192019A1B689A42D2
:1055900004D103B05DF804EB03F03AB8FCF7F8FD72
:1055A000000B0020000000000000000000000000D0
:1055B00010B50C4C82B02368019315290CD8012238
:1055C000094B8A4013403BB101740020019A2368C3
:1055D0009A4204D102B010BD6FF00700F6E7FCF765
:1055E000D7FD00BF000B00200B00300000000000C2
:1055F00000B5074B83B01A680192019A1B689A4262
:1056000004D103B05DF804EB02F0CABAFCF7C0FDA8
:10561000000B00200000000000000000000000005F
:1056200010B5074B82B01C680194019C1B689C421A
:1056300004D102B0BDE8104002F072B9FCF7A8FD39
:10564000000B00200000000000000000000000002F
:1056500010B5074B82B01C680194019C1B689C42EA
:1056600004D102B0BDE8104002F072BAFCF790FD20
:10567000000B0020000000000000000000000000FF
:105680002DE9F04182B002AB0024364D03F8054D00
:1056900090462A6801920F461A460121064603F0F9
:1056A000DFF90446E0B9B8F1010F9DF803301FD0CF
:1056B000042F53D8DFE807F0322D0328230003F02E
:1056C000FB07BB420CD03A460121304603F068F993
:1056D000044628B986F830717169304602F060FAE4
:1056E000019A2B689A42204636D102B0BDE8F0817B
:1056F000042F33D8DFE807F02B26211C170003F016
:105700007F07BB42DFD1EBE703F0BF07BB42DAD133
:10571000E6E703F0D707BB42D5D1E1E703F0EF0797
:10572000BB42D0D1DCE743F08007BB42CBD1D7E707
:1057300043F04007BB42C6D1D2E743F00407BB4267
:10574000C1D1CDE743F02807BB42BCD1C8E743F045
:105750001007BB42B7D1C3E7FCF71AFD6FF0030493
:10576000BEE700BF000B00200000000000000000AA
:1057700030B583B002AA114D002302F8053D0C4656
:105780002B680193012103F06BF978B99DF8033080
:10579000C3F30011C3F3C0022170A270C3F38001F0
:1057A000C3F38012DB096170E2702371019A2B68E8
:1057B0009A4201D103B030BDFCF7EAFC000B002097
:1057C00070B5134C84B00E46236803930DF10602A6
:1057D000F821054603F05CF928B1039A23689A4240
:1057E00013D104B070BD02AA0421284603F068F961
:1057F0000028F2D1BDF8062012B93368AB61ECE79E
:10580000029BB3FBF2F33360F8E7FCF7C1FC00BF87
:10581000000B00200000000000000000000000005D
:1058200000B5084B027F18680A7083B00190019A96
:105830001B689A4203D1002003B05DF804FBFCF71B
:10584000A7FC00BF000B00200000000000000000CB
:1058500070B5104C82B00E46236801930DF1020220
:105860002021054603F014F938B9BDF8023053B1D0
:10587000DB00012233602B622A77019A23689A4267
:1058800005D102B070BD2B6A33602877F5E7FCF7CD
:105890007FFC00BF000B00200000000000000000A3
:1058A000F0B5294F83B03B680193052947D80E46D0
:1058B0000446154662B100EB81020023526B0120C1
:1058C000711E04292FD8DFE801F0252213063100CC
:1058D00010460123F4E75B00FE226021204603F01E
:1058E0008FF870B9344445B9284684F8285008E048
:1058F00084F82B003444002DF6D0012384F828309E
:105900000020019A3B689A421CD103B0F0BD84F894
:105910002A00EFE7C2F34F224421204603F058F853
:105920000028DFD0EDE784F82800E3E71B01EF2231
:105930006021204603F064F80028D3D0E1E76FF03F
:105940000300DEE7FCF724FC000B00200000000051
:1059500010B50C4B82B01C68019405290AD801448B
:10596000002091F828101170019A1B689A4206D104
:1059700002B010BD002111706FF00300F4E7FCF7D6
:1059800007FC00BF000B002000000000000000002A
:10599000F0B543181C4E83B0044693F828003368D2
:1059A00001930D46174630B105292AD8DFE801F0EA
:1059B000141E1A1C0C0C04EB81046263019A3368F8
:1059C0009A421CD103B0F0BDC2F34F22642120469D
:1059D00002F0FEFF08B1F1E7626304EB85040020EA
:1059E0006763EBE7E263F8E72264F6E7C2F34F226E
:1059F0004421204602F0ECFF0028EED0DEE7FCF761
:105A0000C7FB6FF00300D9E7000B00200000000087
:105A100070B5204C82B023680193054616460529CF
:105A200034D8DFE801F0030E0C1E2020436B3360F6
:105A30000020019A23689A4226D102B070BDC36B40
:105A4000F5E70DF10202442103F022F80028F0D11D
:105A5000BDF802305A028BB9AB6B336085F8290070
:105A6000E7E7036CE3E70DF10202642103F010F8AD
:105A70000028DED1BDF802305B02D8E70123326096
:105A8000AA6385F82930D4E7FCF782FB6FF00300A6
:105A9000CFE700BF000B0020000000000000000066
:105AA00070B5104C82B00E46236801930DF10302CD
:105AB0000121054602F0D4FF58B99DF8033085F85E
:105AC00030311B064BBF012303463370307085F81D
:105AD0004C30019A23689A4201D102B070BDFCF7A4
